:100000000C94BD150C94FD150C94FD150C94FD1568
:100010000C94FD150C94FD150C94FD150C94FD1518
:100020000C94FD150C94FD150C94FD150C94FD1508
:100030000C94FD150C94FD150C94FD150C94FD15F8
:100040000C94FD150C946C2D0C94FD150C94FD1561
:100050000C94FD150C94762C0C94FD150C946F9E4D
:100060000C94FD150C949F740C9495740C94FD15D0
:100070000C94FD150C94FD150C94FD150C94FD15B8
:100080000C94FD150C94FD150C94FD150C94FD15A8
:100090000C94FD150C94FD150C94FD150C94FD1598
:1000A0000C94FD150C94FD150C94FD150C94FD1588
:1000B0000C94FD150C94FD150C94FD150C94FD1578
:1000C0000C94FD150C94FD150C94FD150C94FD1568
:1000D0000C94FD150C94FD150C94FD150C94FD1558
:1000E0000C94FD15084AD73B3BCE016E84BCBFFD86
:1000F000C12F3D6C74319ABD56833DDA3D00C77FF8
:1001000011BED9E4BB4C3E916BAAAABE0000008090
:100110003F05A84CCDB2D44EB93836A9020C50B91F
:10012000918688083CA6AAAA2ABE000000803F004B
:100130004E414E494E495459494E46CDCCCC3D0ACC
:10014000D7233C17B7D13877CC2B329595E6241FAF
:10015000B14F0A000020410000C84200401C462068
:10016000BCBE4CCA1B0E5AAEC59D74434F4D4D5577
:100170004E49434154494F4E0044525952554E0046
:100180004552524F525300494E464F004543484F47
:100190000041425300504C4100506C656173652032
:1001A0005265736574005052494E5445522048417F
:1001B0004C5445440025533A202553004B494C4CA0
:1001C00045442E20005072696E7465722068616C1F
:1001D0007465642E206B696C6C28292063616C6CDB
:1001E0006564210A006563686F3A004572726F7238
:1001F0003A0020440020204D323030205300202887
:1002000044697361626C6564293A0046696C616D8A
:10021000656E742073657474696E67730020204D79
:100220003230312058004D617820416363656C6540
:10023000726174696F6E2028756E6974732F7332E2
:10024000290020204D3230332058004D617820663F
:1002500065656472617465732028756E6974732FA7
:1002600073290020520020204D32303420500041AC
:100270006363656C65726174696F6E2028756E6961
:1002800074732F7332292028503C7072696E742D5C
:10029000616363656C3E20523C7265747261637485
:1002A0002D616363656C3E20543C74726176656CAD
:1002B0002D616363656C3E2900204A0020540020B4
:1002C000530020204D323035204200416476616E6B
:1002D0006365642028423C6D696E5F7365676D6578
:1002E0006E745F74696D655F75733E20533C6D6914
:1002F0006E5F66656564726174653E20543C6D692D
:100300006E5F74726176656C5F6665656472617458
:10031000653E204A3C6A756E635F6465763E2900DF
:1003200020440020490020204D3330312050004827
:100330006F74656E642050494400204400204900D9
:1003400020204D3330342050004265642050494411
:100350000020496E76616C696420657874727564FA
:100360006572200020746F6F206C6F6E6720657857
:1003700074727573696F6E2070726576656E7465E0
:10038000640A0020636F6C64206578747275736909
:100390006F6E2070726576656E7465640A00473210
:1003A0002F47332062616420706172616D657465EE
:1003B00072730A00536C6565702E2E2E00436C69B3
:1003C000636B20746F20526573756D652E2E2E0041
:1003D0004E6F204D6F76652E00456E642066696C09
:1003E00065206C6973740A00426567696E206669EE
:1003F0006C65206C6973740A004E6F206D656469CA
:10040000610A00286E6F2066696C65290043757269
:1004100072656E742066696C653A200053442070E2
:1004200072696E74696E67206279746520004E6F20
:1004300074205344207072696E74696E670A002ECE
:100440000A0044656C6574696F6E206661696C654D
:10045000642C2046696C653A200046696C6520640E
:10046000656C657465643A002569730025696D20C3
:10047000256973002569682025696D202569730049
:10048000256964202569682025696D202569730028
:1004900025697920256964202569682025696D20F2
:1004A000256973005072696E742074696D653A2015
:1004B000006F6B006F6666008C0187018001790117
:1004C0006B0144454255473A004D313133205300CA
:1004D0003344205072696E746572204F46462E0078
:1004E000434F4E4649475F4558504F5254004D4583
:1004F00041545041434B00434F4F4C45525F54458C
:100500004D5045524154555245004348414D424596
:10051000525F54454D504552415455524500424159
:1005200042595354455050494E470041524353009D
:100530004D4F54494F4E5F4D4F444553005448452D
:10054000524D414C5F50524F54454354494F4E0019
:10055000455854454E4445445F4D32300043555351
:10056000544F4D5F4649524D574152455F55504C8F
:100570004F4144004C464E5F5752495445004C4F42
:100580004E475F46494C454E414D45004155544FFD
:100590005245504F52545F53445F53544154555346
:1005A0000053445F57524954450052455045415409
:1005B000004D554C54495F564F4C554D45005344E2
:1005C000434152440050524F4D50545F5355505088
:1005D0004F525400484F53545F414354494F4E5F6C
:1005E000434F4D4D414E445300454D455247454EB6
:1005F00043595F50415253455200434153455F4C6C
:10060000494748545F4252494748544E4553530066
:10061000544F47474C455F4C494748545300534F4C
:100620004654574152455F504F5745520042554935
:100630004C445F50455243454E54004C4556454C42
:10064000494E475F44415441005A5F50524F424522
:100650000052554E4F5554004155544F4C45564548
:100660004C005052494E545F4A4F420050524F473F
:1006700052455353004155544F5245504F52545FC9
:1006800054454D50004155544F5245504F52545FC0
:10069000504F5300564F4C554D4554524943004519
:1006A0004550524F4D0042494E4152595F46494CC8
:1006B000455F5452414E53464552005345524941BD
:1006C0004C5F584F4E5F584F4646004649524D5773
:1006D0004152455F4E414D453A4D61726C696E2005
:1006E000322E312E312028417567203130203230B2
:1006F00032322032313A30393A33352920534F558E
:100700005243455F434F44455F55524C3A676974C5
:100710006875622E636F6D2F4D61726C696E4669EC
:10072000726D776172652F4D61726C696E205052E7
:100730004F544F434F4C5F56455253494F4E3A31F9
:100740002E30204D414348494E455F545950453A5B
:100750003344205072696E74657220455854525566
:100760004445525F434F554E543A31205555494404
:100770003A63656465326132662D343161322D34FD
:100780003734382D396231322D6335356336326670
:1007900033363766660A002F2F004D31343520532B
:1007A0003C696E6465783E206F7574206F662072B8
:1007B000616E67652028302D31290A003F4A206F7D
:1007C0007574206F662072616E67652028302E3048
:1007D0003120746F20302E33290A002058004F46F4
:1007E00046004F4E003B200020204D61783A20000B
:1007F000200020204D696E3A2000203B2000202060
:100800004D32313120530046523A0020466C6F770A
:100810003A200064697300656E0043290A00616232
:100820006C656420286D696E2074656D70200043CE
:100830006F6C64206578747275646573206172658D
:100840002000486F6D652025732573257320466948
:10085000727374004F666673657473204170706CB8
:10086000696564004572723A20546F6F2066617248
:100870002100546F6F206661722066726F6D207266
:1008800065666572656E636520706F696E740A00D7
:10089000454550524F4D2064697361626C65640A2E
:1008A000004D383400446F6E65207072696E746953
:1008B0006E672066696C650A004D3737004D33312D
:1008C00000496E76616C6964206578747275646540
:1008D000720A0020204D323036205800486F6D6576
:1008E000206F6666736574004361703A0020573A62
:1008F00000436F6F6C696E672E2E2E0045312025E8
:10090000530020573A0042656420436F6F6C696E54
:10091000672E2E2E004265642048656174696E67FB
:100920002E2E2E0023646566696E6520444546417F
:10093000554C545F00626564004B6420004B692095
:10094000004B7020002066696E6973686564212021
:1009500050757420746865206C617374204B702C22
:10096000204B6920616E64204B6420636F6E73744A
:10097000616E74732066726F6D2062656C6F772094
:10098000696E746F20436F6E666967757261746912
:100990006F6E2E680A00504944204175746F74755B
:1009A0006E6500206661696C6564212074696D65FF
:1009B0006F75740A00504944204175746F74756EE8
:1009C0006500206661696C6564212054656D706501
:1009D00072617475726520746F6F20686967680A48
:1009E00000504944204175746F74756E650050491C
:1009F00044204379636C65730025532025692F25B6
:100A00006900204B643A2000204B693A2000204BBB
:100A1000703A200020436C6173736963205049442D
:100A2000200A00204E6F206F76657273686F6F74B6
:100A30000A002054753A2000204B753A2000206DA2
:100A400061783A2000206D696E3A200020643A20D7
:100A50000020626961733A200048656174696E67BD
:100A60002E2E2E002073746172740A0050494420A7
:100A70004175746F74756E6500206661696C65649C
:100A8000212054656D706572617475726520746F94
:100A90006F20686967680A00504944204175746F87
:100AA00074756E6500504944204175746F74756E9D
:100AB0006500206661696C6564212042616420687C
:100AC00065617465722069640A005049442041756B
:100AD000746F74756E6500A10000006900A20000CB
:100AE000006300B00000000900C10000004100C226
:100AF0000000004100C30000004100C400000041AC
:100B000000C50000004100C60000004145C70000CC
:100B1000004300C80000004500C90000004500CDAA
:100B20000000004900D10000004E00D50000004F39
:100B300000D60000004F00D70000007800DC000065
:100B4000005500DD0000005900E00000006100E1F8
:100B50000000006100E20000006100E300000061AD
:100B600000E40000006100E50000006100E6000014
:100B7000006165E70000006300E80000006500E92F
:100B80000000006500EA0000006500EB0000006561
:100B900000EC0000006900ED0000006900EE0000BC
:100BA000006900EF0000006900F10000006E00F233
:100BB0000000006F00F30000006F00F40000006F01
:100BC00000F50000006F00F60000006F00F8000064
:100BD000006F00F90000007500FA0000007500FBCE
:100BE0000000007500FC0000007500FD00000079A9
:100BF00000FF000000790004010000410005010031
:100C00000061000601000043000701000063000CC2
:100C100001000043000D01000063000E01000044CC
:100C2000000F0100006400110100006400190100C0
:100C30000065001A01000045001B01000065001F4F
:100C40000100006700300100004900310100006927
:100C500000410100004C00420100006C0043010013
:100C6000004E00440100006E00480100006E005874
:100C700001000052005901000072005A01000053A7
:100C8000005B01000073005F010000730060010061
:100C90000053006101000073006501000074006FE3
:100CA00001000075007C0100007A007D0100005AFF
:100CB000007E0100007A00920100006600E302005D
:100CC000007800222000002E001E21000050782213
:100CD000210000544D902100003C2D922100002D58
:100CE0003EB02100000300BB21000004003C2200B4
:100CF000007E00482200007E3D60220000213D6110
:100D00002200003D00642200003C3D652200003EC0
:100D10003DF12300000700A03000003D0021F30159
:100D2000000200C2F401000500A2000000EC00B0C7
:100D3000000000DF00E4000000E100F6000000EF2A
:100D400000F7000000FD00FC000000F500E30200D9
:100D500000EB0087030000A5008F030000F400985B
:100D6000030000F2009E030000E300A3030000F66E
:100D700000A9030000F400AC030000E000AD030094
:100D800000E300B1030000E000B2030000E200B5A0
:100D9000030000E300B8030000F200BC030000E41D
:100DA00000BE030000E300C0030000F700C1030021
:100DB00000E600C3030000E500902100007F0092E0
:100DC0002100007E001A220000E8001E220000F32D
:100DD0000088250000FF0002300000A1000C300058
:100DE00000A2000D300000A3009B300000DE009C3C
:100DF000300000DF00A03000003D00A1300000A75F
:100E000000A2300000B100A3300000A800A4300010
:100E100000B200A5300000A900A6300000B300A772
:100E2000300000AA00A8300000B400A9300000ABD8
:100E300000AA300000B500AB300000B600AC3000B6
:100E400000B6DEAD300000B700AE300000B7DEAF58
:100E5000300000B800B0300000B8DEB1300000B99A
:100E600000B2300000B9DEB3300000BA00B4300088
:100E700000BADEB5300000BB00B6300000BBDEB704
:100E8000300000BC00B8300000BCDEB9300000BD4E
:100E900000BA300000BDDEBB300000BE00BC300038
:100EA00000BEDEBD300000BF00BE300000BFDEBFB0
:100EB000300000C000C0300000C0DEC1300000C102
:100EC00000C2300000C1DEC3300000AF00C43000FB
:100ED00000C200C5300000C2DEC6300000C300C73B
:100EE000300000C3DEC8300000C400C9300000C4B8
:100EF000DECA300000C500CB300000C600CC300098
:100F000000C700CD300000C800CE300000C900CFBF
:100F1000300000CA00D0300000CADED1300000CA64
:100F2000DFD2300000CB00D3300000CBDED4300065
:100F300000CBDFD5300000CC00D6300000CCDED7AF
:100F4000300000CCDFD8300000CD00D9300000CD1B
:100F5000DEDA300000CDDFDB300000CE00DC300018
:100F600000CEDEDD300000CEDFDE300000CF00DF5F
:100F7000300000D000E0300000D100E1300000D2AD
:100F800000E2300000D300E3300000AC00E43000A9
:100F900000D400E5300000AD00E6300000D500E7E9
:100FA000300000AE00E8300000D600E9300000D785
:100FB00000EA300000D800EB300000D900EC30002F
:100FC00000DA00ED300000DB00EF300000DC00F262
:100FD000300000A600F3300000DD00F4300000B364
:100FE000DEF7300000DCDEFA300000A6DEFB300069
:100FF00000A500FC300000B000FD300000A4000798
:101000004E0000FB0086510000FC0043530000FA34
:101010000064FF0000A40065FF0000A50066FF005B
:1010200000A60067FF0000A70068FF0000A8006995
:10103000FF0000A9006AFF0000AA006BFF0000ABE0
:10104000006CFF0000AC006DFF0000AD006EFF0003
:1010500000AE006FFF0000AF0070FF0000B0007135
:10106000FF0000B10072FF0000B20073FF0000B388
:101070000074FF0000B40075FF0000B50076FF00AB
:1010800000B60077FF0000B70078FF0000B80079D5
:10109000FF0000B9007AFF0000BA007BFF0000BB30
:1010A000007CFF0000BC007DFF0000BD007EFF0053
:1010B00000BE007FFF0000BF0080FF0000C0008175
:1010C000FF0000C10082FF0000C20083FF0000C3D8
:1010D0000084FF0000C40085FF0000C50086FF00FB
:1010E00000C60087FF0000C70088FF0000C8008915
:1010F000FF0000C9008AFF0000CA008BFF0000CB80
:10110000008CFF0000CC008DFF0000CD008EFF00A2
:1011100000CE008FFF0000CF0090FF0000D00091B4
:10112000FF0000D10092FF0000D20093FF0000D327
:101130000094FF0000D40095FF0000D50096FF004A
:1011400000D60097FF0000D70098FF0000D8009954
:10115000FF0000D9009AFF0000DA009BFF0000DBCF
:10116000009CFF0000DC009DFF0000DD009EFF00F2
:1011700000DE009FFF0000DF00E5FF00005C0000D4
:10118000000000010204040000001C1C0C04040404
:101190000201000000000004081000000000002D03
:1011A0002D2D2D2D2D007C4D61726C696E7C002DD6
:1011B0002D2D2D2D2D00001C1F11111F00000006CC
:1011C000191803130C00040E1F041C000000000E6D
:1011D0001315110E00001C10181705060500040A4F
:1011E0000A0A0A11110E0C12120C00000000001F56
:1011F0001511151F000042656400456E636C6F7326
:10120000757265002568753A25303268750025309D
:101210003268753A25303268750025303268752796
:101220002530326875002D2D2D00534400202020DC
:10123000202020200020202020005072696E742081
:1012400041626F72746564004D3235005061757390
:10125000696E672E2E2E004D32340046696C2E20AA
:101260004469612E004520696E206D6D5E3300205B
:10127000022046616374002002204D617800200244
:10128000204D696E004F6666004F6E004175746FA9
:1012900074656D70004D696E2054726176656C20C6
:1012A0005370656564004D696E2056656C6F6369A7
:1012B0007479004D61782040205370656564004D5D
:1012C0006178204520416363656C004D6178204062
:1012D00020416363656C0054726176656C204163E4
:1012E00063656C0052657472616374204163636569
:1012F0006C00416363656C00402073746570732FEC
:101300006D6D00416476616E63656420536574742D
:10131000696E6773004D3432380046696C616D65E3
:101320006E740054656D70657261747572650053FA
:10133000746570732F6D6D004A756E6374696F6E9E
:101340002044657600416363656C65726174696F02
:101350006E004D617820537065656420286D6D2F97
:1013600073290053657420486F6D65204F6666735E
:1013700065747300436F6E66696775726174696F37
:101380006E00426564004E6F7A7A6C650046616E4D
:1013900020537065656400436F6E6669677572619E
:1013A00074696F6E00526573746F72652044656670
:1013B00061756C74730050726568656174202420D7
:1013C000436F6E6600416476616E636564205365A9
:1013D0007474696E6773004D61696E003F0042610D
:1013E000636B0053746F70004E6F204D65646961CC
:1013F000005072696E742066726F6D204D6564696D
:1014000061004368616E6765204D65646961004DE8
:10141000323100436F6E66696775726174696F6E11
:101420000054656D7065726174757265004D6F74FE
:10143000696F6E00526573756D65205072696E74C8
:101440000054756E650053746F70205072696E742D
:10145000005061757365205072696E7400496E6644
:101460006F2053637265656E003F00537461727440
:10147000205072696E740043616E63656C00507237
:10148000696E740043616E6E6F7420656E74657270
:10149000207375626469723A200005202E2E004D7B
:1014A00061696E002100486F74656E6420746F6F0F
:1014B00020636F6C64004261636B0050726F636500
:1014C0006564004D6F766520457874727564657249
:1014D000004D6F74696F6E0044697361626C6520C2
:1014E0005374657070657273004D383400417574C3
:1014F0006F20486F6D6500473238004D61696E009E
:1015000050726568656174202420426564005072E1
:101510006568656174202420456E640054656D70B3
:10152000657261747572650095019101436F6F6C0E
:10153000646F776E005072656865617420240046A0
:10154000616E20537065656400426564004E6F7A79
:101550007A6C65004D61696E00466C6F770046617C
:101560006E20537065656400426564004E6F7A7A40
:101570006C65005370656564004D61696E006F7045
:10158000656E00545249474745524544003A200091
:101590007A5F6D696E00795F6D696E00785F6D6965
:1015A0006E005265706F7274696E6720656E647349
:1015B000746F70207374617475730A00000000000A
:1015C00000000000000000005761726E696E673A0B
:1015D00020486F6D696E672042756D702044697692
:1015E00069736F72203C20310A00020204000096E9
:1015F00043000096430000BE430000A0400000A04E
:10160000400000004000009643000096430000BEEA
:10161000430000000000000000000000004861726C
:1016200064636F6465642044656661756C742053FF
:10163000657474696E6773204C6F61646564000043
:10164000007A4300007A430000A0410000F042000D
:1016500000A0420000A042000096430000C242A049
:101660000F0000A00F0000E803000010270000207A
:10167000286D6D29002046002042002048002020CF
:101680004D3134352053004D6174657269616C20B1
:1016900068656174757020706172616D65746572E2
:1016A000730020204D3134392043203B20556E6992
:1016B000747320696E2043656C736975730A0054F6
:1016C000656D706572617475726520556E697473AD
:1016D000002020473231203B004C696E656172204A
:1016E000556E6974730020436F756E7420583A000C
:1016F000426564004531004500626564002C20733A
:10170000797374656D2073746F70706564212048FF
:1017100065617465725F49443A20004572723A20EF
:101720004D415854454D50004D415854454D502061
:101730007472696767657265640048656174696E93
:1017400067204661696C65640048656174696E670D
:10175000206661696C6564004572723A204D494E9D
:1017600054454D50004D494E54454D5020747269BA
:1017700067676572656400544845524D414C20527C
:10178000554E4157415900546865726D616C205245
:10179000756E6177617900202F002042403A002069
:1017A000403A000009121B242D363F48415A536C21
:1017B000657E7719100B023D342F265158434A7528
:1017C0007C676E323B2029161F040D7A7368615EB8
:1017D000574C452B2239300F061D14636A71784728
:1017E0004E555C646D767F4049525B2C253E370830
:1017F000011A137D746F6659504B42353C272E11E8
:1018000018030A565F444D727B60691E170C053A37
:101810003328214F465D546B627970070E151C23E7
:101820002A31384148535A656C777E09001B122DC6
:10183000243F3658514A437C756E671019020B34A9
:101840003D262F737A6168575E454C3B3229201F35
:10185000160D046A6378714E475C55222B303906A9
:101860000F141D252C373E0108131A6D647F76492D
:10187000405B523C352E2718110A03747D666F5069
:1018800059424B171E050C333A21285F564D447BB5
:101890007269600E071C152A233831464F545D6269
:1018A0006B707900002110422063308440A550C63F
:1018B00060E770088129914AA16BB18CC1ADD1CE8E
:1018C000E1EFF13112100273325222B5529442F715
:1018D00072D662399318837BB35AA3BDD39CC3FFDE
:1018E000F3DEE36224433420040114E664C774A4E5
:1018F0004485546AA54BB528850995EEE5CFF5AC2E
:10190000C58DD55336722611163006D776F66695F4
:1019100056B4465BB77AA719973887DFF7FEE79D7D
:10192000D7BCC7C448E5588668A778400861180244
:10193000282338CCC9EDD98EE9AFF9488969990ACD
:10194000A92BB9F55AD44AB77A966A711A500A3354
:101950003A122AFDDBDCCBBFFB9EEB799B588B3B1D
:10196000BB1AABA66C877CE44CC55C222C033C60A4
:101970000C411CAEED8FFDECCDCDDD2AAD0BBD686D
:101980008D499D977EB66ED55EF44E133E322E5134
:101990001E700E9FFFBEEFDDDFFCCF1BBF3AAF59BD
:1019A0009F788F8891A981CAB1EBA10CD12DC14E2E
:1019B000F16FE18010A100C230E3200450254046C1
:1019C000706760B9839893FBA3DAB33DC31CD37FE0
:1019D000E35EF3B1029012F322D232354214527711
:1019E000625672EAB5CBA5A89589856EF54FE52CB0
:1019F000D50DC5E234C324A0148104667447642461
:101A0000540544DBA7FAB79987B8975FE77EF71DBF
:101A1000C73CD7D326F2369106B0165766767615B0
:101A20004634564CD96DC90EF92FE9C899E9898A0F
:101A3000B9ABA94458654806782768C018E1088200
:101A400038A3287DCB5CDB3FEB1EFBF98BD89BBB1F
:101A5000AB9ABB754A545A376A167AF10AD01AB350
:101A60002A923A2EFD0FED6CDD4DCDAABD8BADE86F
:101A70009DC98D267C076C645C454CA23C832CE0A0
:101A80001CC10C1FEF3EFF5DCF7CDF9BAFBABFD9FF
:101A90008FF89F176E367E554E745E932EB23ED1F0
:101AA0000EF01E7C3C3E5E2B3D3F2F5B5D3B2C2AA7
:101AB000225C0043616E6E6F74206F70656E2073E0
:101AC000756264697220004D6564696120496E69C0
:101AD00074204661696C0053442063617264206F16
:101AE0006B0A006F70656E526F6F74206661696C6F
:101AF00065640A00766F6C756D652E696E69742079
:101B00006661696C65640A004E6F2053442063610E
:101B100072640A000A4D3234004D323320257300BE
:101B20002E0A006F70656E206661696C65642C20FA
:101B300046696C653A200046696C652073656C6582
:101B4000637465640A002053697A653A2000466927
:101B50006C65206F70656E65643A2000454E4420C8
:101B6000535542524F5554494E450A002220706F3A
:101B700073002220706172656E743A2200535542E0
:101B8000524F5554494E452043414C4C207461728C
:101B90006765743A220053756263616C6C204F76FE
:101BA0006572666C6F77004578636565646564206F
:101BB0006D617820535542524F5554494E4520642B
:101BC000657074683A0057726974696E6720746F43
:101BD0002066696C653A2000667265736800646F00
:101BE000696E67002066696C653A20004E6F772049
:101BF000002F6175746F25632E67006D61726C69CB
:101C00006E66772E6F7267006D61726C696E6677B3
:101C10002E6F726700322E312E3100322E312E316E
:101C200000006D61726C696E66772E6F7267006D71
:101C300061726C696E66772E6F72670020322E318A
:101C40002E310070012C0190012701B0012201C04A
:101C5000011D01F00118011002130130020E016094
:101C600002090190020401C002FF000003FA0040D3
:101C700003F5008003F000D003EB002004E60070C1
:101C800004E100E004DC004005D700C005D20040BC
:101C900006CD00D006C8008007C3003008BE00F0A3
:101CA00008B900C009B400B00AAF00B00BAA00D058
:101CB0000CA500000EA000500F9B00C01096005015
:101CC00012910000148C00C0158700B0178200B07C
:101CD000197D00D01B7800001E730040206E00901C
:101CE000226900F024640040275F0090295A00E038
:101CF0002B5500102E500020304B0010324600E0D3
:101D000033410090353C001037370070383200A066
:101D1000392D00B03A2800A03B2300603C1E001083
:101D20003D1900903D1400103E0F00703E0A00C0A7
:101D30003E0500003F0000403FFBFF803FF6FFC034
:101D40003FF1FF2020506C616E6E657242756666D1
:101D5000657242797465733A200020467265652089
:101D60004D656D6F72793A200020436F6D70696C1C
:101D700065643A2041756720313020323032320AB2
:101D800000204C61737420557064617465643A205E
:101D9000323032322D30382D3036207C204175746F
:101DA000686F723A20286E6F6E652C2064656661DC
:101DB000756C7420636F6E666967290A004D6172E5
:101DC0006C696E20322E312E310A0020536F6674FA
:101DD000776172652052657365740A0020576174DB
:101DE0006368646F672052657365740A00204272ED
:101DF0006F776E206F75742052657365740A0020CA
:101E000045787465726E616C2052657365740A0062
:101E1000506F77657255700A0073746172740A00AE
:101E20004732385859004D31303031006F6B006502
:101E300072726F722077726974696E6720746F2096
:101E400066696C650A00446F6E6520736176696E21
:101E5000672066696C652E0A00456E6473746F7046
:101E600073002553202563202563202563202563E7
:101E700000205A3A0020593A0020583A00656E6412
:101E800073746F7073206869743A200000000A0B45
:101E900002090C0D0E0807030401000000000000F9
:101EA0000000000000000000000000000000000032
:101EB00000000000000000001211100000000000EF
:101EC0000000000000000000000000000000000012
:101ED000000024F404D9201BC40C5C0E9804C4092F
:101EE0005F0265077101F405F900FB04B3004804C3
:101EF0008700C10369005803550003034500BE0273
:101F00003A008402310053022A002902250004020B
:101F10002000E4011C00C8011900AF01170098015E
:101F200014008401130071011000610110005101BF
:101F30000E0043010D0036010B002B010B002001A8
:101F40000B00150109000C01090003010800FB004A
:101F50000800F3000800EB000700E4000600DE00C4
:101F60000600D8000600D2000600CC000500C7001D
:101F70000500C2000500BD000400B9000400B50062
:101F80000400B1000400AD000400A9000400A50095
:101F90000300A20003009F0004009B0003009800C0
:101FA00003009500020093000300900003008D00E1
:101FB00002008B00030088000200860002008400FB
:101FC0000300810002007F0002007D0002007B0010
:101FD0000200790002007700010076000200740020
:101FE000020072000100710002006F0002006D002B
:101FF00001006C0002006A00010069000200670035
:10200000010066000100650001006400020062003A
:10201000010061000100600001005F0002005D003E
:1020200001005C0001005B0001005A000100590042
:102030000100580001005700010056000100550042
:102040000100540001005300000053000100520041
:10205000010051000100500001004F0001004E003E
:1020600000004E0001004D0001004C0001004B003B
:1020700000004B0001004A00010049000100480037
:102080000000480001004700010046000000460033
:10209000010045000000450001004400010043002C
:1020A0000000430001004200000042000100410026
:1020B000000041000100400001003F0000003F001F
:1020C00001003E0000003E0001003D0000003D0018
:1020D00001003C0000003C0000003C0001003B000F
:1020E00000003B0001003A0000003A000100390006
:1020F00000003900010038000000380000003800FE
:1021000001003700000037000100360000003600F3
:1021100000003600010035000000350000003500E9
:1021200001003400000034000000340001003300DE
:1021300000003300000033000100320000003200D4
:1021400000003200010031000000310000003100C9
:1021500001003000000030000000300001002F00BE
:1021600000002F0000002F0000002F0001002E00B3
:1021700000002E0000002E0001002D0000002D00A8
:1021800000002D0000002D0001002C0000002C009C
:1021900000002C0000002C0001002B0000002B0090
:1021A00000002B0000002B0001002A0000002A0084
:1021B00000002A0000002A00010029000000290078
:1021C000000029000000290000002900010028006B
:1021D000000028000000280000002800000028005F
:1021E0000100270000002700000027000000270052
:1021F0000000270001002600000026000000260045
:102200000000260000002600010025000000250037
:10221000000025000000250000002500000025002A
:10222000010024000000240000002400000024001D
:102230000000240001002300000023000000230010
:102240000000230000002300000023000000230002
:1022500001002200000022000000220000002200F5
:1022600000002200000022000100210000002100E7
:1022700000002100000021000000210000002100DA
:1022800000002100010020000000200000002000CC
:1022900000002000000020000000200000002000BE
:1022A0000000200001001F0000001F0000001F00B0
:1022B00000001F0000001F0000001F0000001F00A2
:1022C00001001E0000001E0000001E0000001E0095
:1022D000000024F4D43050C38E20C2A24017828B59
:1022E0007011127A910D816CD90AA861E108C75862
:1022F0006607615143061E4B5D05C145A7041A419F
:102300001104093D9803713931034036DB0265330E
:102310009102D4305402802E1D02632CEE01752AE6
:10232000C501B028A001102781018F2564012B244D
:102330004B01E0223401AC211F018D200D01801FD3
:10234000FC00841EED00971DDF00B81CD200E61BC8
:10235000C600201BBC00641AB200B219A8000A19FA
:10236000A0006A189900D117910040178B00B5168C
:10237000840031167E00B31579003A157300C71436
:102380006F0058146A00EE1366008813630025136B
:102390005E00C7125B006C12570015125400C11189
:1023A000510070114F0021114B00D61049008D10C3
:1023B00047004610440002104200C00F4000800F4A
:1023C0003E00420F3C00060F3B00CB0E3800930E40
:1023D00037005C0E3500270E3400F30D3200C10DBE
:1023E0003100900D3000600D2E00320D2D00050DD6
:1023F0002C00D90C2B00AE0C2900850C29005C0C9C
:102400002700350C27000E0C2600E80B2400C40B17
:102410002400A00B23007D0B23005A0B2100390B55
:102420002100180B2000F80A1F00D90A1E00BB0A61
:102430001E009D0A1D00800A1D00630A1C00470A39
:102440001B002C0A1B00110A1A00F7091A00DD09EB
:102450001900C4091900AB091900920917007B097A
:102460001800630917004C091600360916002009E8
:1024700016000A091500F5081500E0081400CC083C
:102480001400B8081400A4081400900813007D0874
:1024900012006B0813005808120046081200340896
:1024A0001100230811001208110001081100F007A3
:1024B0001000E0071000D0071000C0071000B007A0
:1024C0000F00A107100091070E0083070F0074078B
:1024D0000F0065070E0057070E0049070E003B0767
:1024E0000D002E070E0020070D0013070D00060734
:1024F0000D00F9060C00ED060D00E0060C00D406F8
:102500000C00C8060C00BC060C00B0060C00A406AB
:102510000B0099060C008D060B0082060B00770657
:102520000B006C060B0061060A0057060B004C06F8
:102530000A0042060A0038060A002E060A0024068F
:102540000A001A060A001006090007060A00FD051F
:102550000900F4050900EB050900E2050900D905A9
:102560000900D0050900C7050900BE050900B50529
:102570000800AD050800A50509009C0508009405A4
:1025800008008C050800840508007C050800740517
:1025900008006C050700650508005D050700560585
:1025A00008004E05070047050700400508003805EC
:1025B0000700310507002A050700230507001C0551
:1025C0000600160507000F050700080506000205AE
:1025D0000700FB040600F5040700EE040600E8040B
:1025E0000600E2040700DB040600D5040600CF0461
:1025F0000600C9040600C3040600BD040600B704B3
:102600000600B1040500AC040600A6040600A00400
:1026100005009B04060095040500900406008A044A
:10262000050085040500800406007A040500750491
:102630000500700405006B040500660405006104D4
:1026400005005C04050057040500520405004D0414
:10265000050048040500430405003E0404003A0454
:10266000050035040500300404002C04050027048F
:102670000400230405001E0404001A0404001604C8
:102680000500110404000D040400090405000404FD
:10269000040000040400FC030400F8030400F40335
:1026A0000400F0030400EC030400E8030400E40366
:1026B0000400E0030400DC030400D8030400D40396
:1026C0000400D0030400CC030400C8030300C503C6
:1026D0000300043700001E290000511B00005810A1
:1026E000000010090000CC04000078020000410145
:1026F00000004D6F766520246D6D00302E30323530
:10270000004D6F766520302E316D6D004D6F766512
:1027100020316D6D004D6F76652031306D6D004D4F
:102720006F76652041786973004D6F7665202A00C9
:102730004D6F76652040005072696E742066726F2E
:102740006D204D65646961000000220025002800AD
:102750002B002E00310034000201000005010801A9
:102760000B0100002100240027002A002D0030006A
:10277000330001010000040107010A0105050505F8
:10278000070508080808020202020A0A08080404E9
:102790000404010101010101010103030303030317
:1027A0000303040707070C0C0C0C0C0C0C0C0202A6
:1027B000020206060606060606060B0B0B0B0B0BA3
:1027C0000B0B010210202008081020401020408030
:1027D00002010201080402010102040810204080E5
:1027E0008040201008040201800402018040201073
:1027F00008040201080402010102040810204080BC
:102800000102040810204080486F6D696E67204601
:1028100061696C656400FFFFFF20453A00205A3A69
:102820000020593A00583A00204500205A0020590B
:102830000020204D39322058005374657073207089
:10284000657220756E697400220A00556E6B6E6F9A
:10285000776E20636F6D6D616E643A202200627541
:1028600073793A2070617573656420666F722069B0
:102870006E7075740A00627573793A2070617573B1
:10288000656420666F7220757365720A00627573E5
:10289000793A2070726F63657373696E670A004DD1
:1028A000656469612052656D6F766564004D65648D
:1028B000696120496E736572746564004D3131320F
:1028C0002053687574646F776E0053544F505045B1
:1028D000442E20005072696E7465722073746F709C
:1028E0007065642064756520746F206572726F7204
:1028F000732E2046697820746865206572726F7245
:1029000020616E6420757365204D39393920746FEC
:1029100020726573746172742E202854656D706521
:102920007261747572652069732072657365742EA7
:102930002053657420697420616674657220726525
:102940007374617274696E67290A004E6F20436860
:1029500065636B73756D2077697468206C696E654B
:10296000206E756D6265722C204C617374204C6909
:102970006E653A20004D3239004E6F204368656322
:102980006B73756D2077697468206C696E65206E55
:10299000756D6265722C204C617374204C696E6594
:1029A0003A2000636865636B73756D206D69736DA4
:1029B000617463682C204C617374204C696E653AB5
:1029C00020004C696E65204E756D626572206973DA
:1029D000206E6F74204C617374204C696E65204EBC
:1029E000756D6265722B312C204C617374204C69BB
:1029F0006E653A20004D3131300053657269616C6B
:102A000020737461747573206D69736D617463688C
:102A10000A0053442072656164206572726F720A05
:102A2000004B494C4C20627574746F6E2F70696E48
:102A30000A002121204B494C4C2063617573656469
:102A40002062792000746F6F206D75636820696E55
:102A50006163746976652074696D65202D206375E6
:102A60007272656E7420636F6D6D616E643A2000E2
:102A70002121204B494C4C206361757365642062B1
:102A8000792000DB0FC93F45BCDA3F8FB30240FC21
:102A9000F0274056946140FE4B9B4084A5D840E00F
:102AA000231841346A5641E859974164DBD5416E99
:102AB000271742B4B75542CE1A9742C8AED542B591
:102AC000885A43D40684BFA65FA7BF7443E0BF10F3
:102AD000B11AC01C2C58C0E8F697C0B849D6C04EF1
:102AE0004E17C124D355C1802497C1A0B5D5C112BA
:102AF0001A17C244AE55C2781797C26CACD5C267DC
:102B0000885AC320746F6F206C6F6E67206578746D
:102B1000727573696F6E2070726576656E74656428
:102B20000A0020636F6C6420657874727573696F36
:102B30006E2070726576656E7465640A006F6B0A4C
:102B400000526573656E643A200033442050726908
:102B50006E7465722052656164792E005072696EE0
:102B600074696E672E2E2E005072696E742050614B
:102B7000757365640000E2C06ECA11241FBECFEFFA
:102B8000D1E2DEBFCDBF00E00CBF84B78093451219
:102B900014BE0FB6F894A895809160008861809368
:102BA0006000109260000FBE12E0A0E0B2E0E4E22C
:102BB000FDEA01E00BBF02C007900D92A63FB107EE
:102BC000D9F722E1A6EFB2E001C01D92A534B20709
:102BD000E1F715E1CCEBD5E100E006C02197010952
:102BE000802FFE010E943BD3CB3BD10780E008073A
:102BF000A9F70E94EFC10C9481D60C940000DC016F
:102C0000680F791F90E080E02D91E92FFF27E227E0
:102C1000EE0FFF1FED55F74E25913491982F882721
:102C2000822793276A177B0779F708950F931F93DD
:102C3000CF93DF93CDB7DEB760970FB6F894DEBFC2
:102C40000FBECDBF8C01DC01ED91FC910280F381C0
:102C5000E02DBE016F5F7F4F1995882309F464C092
:102C60008981807CC9F56F81637070E0762F66275B
:102C7000770F770F8885B4E08B9FC0011124682BF4
:102C8000792B89858295869586958370682B6F5FF1
:102C90007F4F90E080E02A852370220F3B8537FB31
:102CA000332730F9232B3E813F70230F3327331F07
:102CB0002750310904C0660F771F881F991F2A9576
:102CC000D2F760960FB6F894DEBF0FBECDBFDF918E
:102CD000CF911F910F910895803419F568856695FD
:102CE000669570E090E080E0CB01772766272A8523
:102CF000622B098510E0102F0027012E000C220BFB
:102D0000330B602B712B822B932B6F5F7F4F8F4F79
:102D10009F4F4AE0660F771F881F991F4A95D1F78A
:102D2000D0CF8BE0F801848360E070E0CB01C9CFA5
:102D3000FC01828108952F923F924F925F926F9291
:102D40007F928F929F92AF92BF92CF92DF92EF923B
:102D5000FF920F931F93CF93DF9300D000D01F9269
:102D60001F92CDB7DEB798878F83DC010D90BC91A1
:102D7000A02DBA83A98318966D917C91199761153E
:102D8000710501F114968D919D910D90BC91A02D2E
:102D90008B839C83AD83BE83072E000C880B990B1D
:102DA0000E94E6CE2B813C814D815E810E945BD3E7
:102DB0004B015C0120E030E040E251EC0E94E0CEAB
:102DC00087FF08C081E0EF81F885868BC12CD12C6C
:102DD0007601DEC020E030E040E251E4C501B401FC
:102DE0000E9482D5181664F481E0AF81B8855696AA
:102DF0008C93C12CD12C8FE7E82E83E4F82EC8C029
:102E0000EF81F8858689882349F0168A1686178609
:102E1000108A118A1286138614861586A981BA81B2
:102E20001F964D905D906D907C905297EF81F88544
:102E30002685378540895189C501B4010E945CD33C
:102E40001B016C0120E030E0A9010E94E0CE87FD6B
:102E5000BAC0A301920160E070E08FE793E40E94A2
:102E600038D47B018C019B01AC01B101C6010E94E9
:102E700082D5181614F071018601C701D801EF81BF
:102E8000F88586879787A08BB18BA981BA811B961D
:102E90002D913D914D915C911E97C501B4010E9409
:102EA00045CF4B015C01EF81F88582829382A48239
:102EB000B5829701A801C301B2010E9445CF2B0141
:102EC0003C01AF81B88516964D925D926D927C92D1
:102ED00019971A96CD90DD90ED90FC901D972B815F
:102EE0003C814D815E8152966D917D918D919C9139
:102EF00055970E945BD3E981FA81238934894589FA
:102F000056890E9445CFA70196010E945BD320ED10
:102F10003CEC4CE45DE30E9445CFA70196010E9482
:102F20005CD36B017C01AF81B8851A96CD92DD929E
:102F3000ED92FC921D978B819C81AD81BE81EF81CA
:102F4000F885828B938BA48BB58BA3019201C5016D
:102F5000B4010E945CD3A70196010E945CD320E0DB
:102F600030E0A9010E945CD36B017C0120E030E0DD
:102F7000A9010E94E0CE87FD29CF20E030E04FE795
:102F800053E4C701B6010E9482D518160CF431CF64
:102F9000C701B60128960FB6F894DEBF0FBECDBFAD
:102FA000DF91CF911F910F91FF90EF90DF90CF9025
:102FB000BF90AF909F908F907F906F905F904F9059
:102FC0003F902F900895E12CF12C00E010E055CFB8
:102FD000CF93DF93C0912105D091220581E0CE31BE
:102FE000D105E4F020E030E040E05FE360911D05B2
:102FF00070911E0580911F05909120050E945CD361
:103000000E94A0D46C1B7D0B77FF03C07195619566
:10301000710981E0633071050CF080E0DF91CF91A0
:103020000895FC0190E1A0E2B4E001900D929A9520
:10303000E1F7089580E00895AF92BF92CF92DF92BA
:10304000EF92FF920F931F93CF93DF93CDE6D5E0DE
:1030500001E415E08DE7A82E85E0B82EC12CD12C17
:103060007601C39469917991899199910E94E4CEF6
:10307000288939894A895B890E9445CF0E94A5D455
:10308000F80161937193819391938F01C616D706CE
:10309000E806F90610F46B017C01AC16BD0611F7C9
:1030A0006FEF7FEFCB01A70196010E94A4D220937E
:1030B0005105309352054093530550935405DF91C9
:1030C000CF911F910F91FF90EF90DF90CF90BF9025
:1030D000AF900895CF92DF92EF92FF928091C60356
:1030E000882309F457C0C090C203D090C303E09076
:1030F000C403F090C50320E030E0A901C701B60188
:103100000E94E0CE882309F445C020E030E040E092
:103110005FE3C701B6010E9445CF9B01AC010E944D
:1031200045CF2BED3FE049E450E40E9445CF9B01A1
:10313000AC0160E070E080E89FE30E9438D46B014E
:103140007C01C092BC03D092BD03E092BE03F0921A
:10315000BF0360910E0270910F02072E000C880BC6
:10316000990B0E94E6CE2AE037ED43E25CE30E9431
:1031700045CFA70196010E9445CF60934F027093FF
:1031800050028093510290935202FF90EF90DF9093
:10319000CF900895C12CD12C80E8E82E8FE3F82E33
:1031A000D0CFCF93DF9324E0829FC0011124EC01A4
:1031B000CF50DB4FFC01E057FB4F80569C4FDC01AA
:1031C0002D913D914D915C916081718182819381BE
:1031D0000E945CD3688379838A839B83DF91CF913C
:1031E00008958F929F92AF92BF92CF92DF92EF920B
:1031F000FF92CF93DF9320911202222309F48EC015
:10320000EC0180919F03E82E80FF2CC08090140277
:1032100090901502A0901602B09017022881398173
:103220004A815B81C501B4010E9482D5181624F43D
:1032300088829982AA82BB8280902002909021028B
:10324000A0902202B0902302288139814A815B81BB
:10325000C501B4010E94E0CE87FF04C08882998234
:10326000AA82BB82E1FE2CC08090180290901902C5
:10327000A0901A02B0901B022C813D814E815F818B
:10328000C501B4010E9482D5181624F48C829D8257
:10329000AE82BF828090240290902502A0902602E8
:1032A000B09027022C813D814E815F81C501B40120
:1032B0000E94E0CE87FF04C08C829D82AE82BF82D6
:1032C000E2FE2CC0C0901C02D0901D02E0901E02B5
:1032D000F0901F02288539854A855B85C701B601B4
:1032E0000E9482D5181624F4C886D986EA86FB8601
:1032F000C0902802D0902902E0902A02F0902B0280
:10330000288539854A855B85C701B6010E94E0CED4
:1033100087FF04C0C886D986EA86FB86DF91CF91F5
:10332000FF90EF90DF90CF90BF90AF909F908F90E5
:103330000895CF92DF92EF92FF92FC01C080D1807E
:10334000E280F38020E030E0A901C701B6010E94CD
:10335000E0CE87FF68C0C701B601905820E030E09A
:1033600040E251E40E9445CF20E030E040EA50E4E2
:103370000E945CD320E030E040E251E40E9438D467
:103380000E94A0D49B0160E22031F7E23F0730F0B9
:10339000C90160E177E20E94F8D2605D609380032A
:1033A000283E83E0380708F445C0C90168EE73E0A1
:1033B0000E94F8D2CB016AE070E00E94F8D2805DF2
:1033C0008093810380E22436310558F0C90164E618
:1033D00070E00E94F8D2CB016AE070E00E94F8D25F
:1033E000805D8093820380E22A30310558F0EAE064
:1033F000F0E0C901BF010E94F8D2CB01BF010E94D9
:10340000F8D2805D80938303C9016AE070E00E9476
:10341000F8D2805D8093840380E893E0FF90EF9082
:10342000DF90CF90089520E030E040E251E4C70102
:10343000B60198CF80E2C4CF8F929F92AF92BF9295
:10344000CF92DF92EF92FF92FC01C080D180E280A8
:10345000F38020E030E040E251E4C701B6010E9471
:1034600045CF20E030E040E251E40E9445CF4B01DF
:103470005C0120E030E0A901C701B6010E94E0CE66
:1034800020E030E040EA50E487FF04C020E030E074
:1034900040EA50ECC501B4010E945CD320E030E06A
:1034A00040E251E40E9438D40E94A0D49B018BE2F8
:1034B00037FF05C022273327261B370B8DE2809369
:1034C0007F03C90168EE73E00E940CD3CB01EAE0F0
:1034D000F0E0BF010E940CD3805D80938003C9019E
:1034E00064E670E00E940CD3CB01BF010E940CD3B4
:1034F000805D80938103C901BF010E940CD3282FF6
:10350000CB01BF010E940CD3805D809382038EE2C9
:1035100080938303205D209384038FE793E0FF90E3
:10352000EF90DF90CF90BF90AF909F908F900895D5
:103530008F929F92AF92BF92CF92DF92EF92FF92C3
:10354000CF93FC01C080D180E280F38020E030E0A6
:1035500040E251E4C701B6010E9445CF20E030E0CF
:1035600048EC52E40E9445CF4B015C0120E030E082
:1035700040E251ECC701B6010E94E0CE181654F4A7
:1035800020E030E048EC52E4C701B6010E9482D549
:1035900087FD86C020E030E0A901C701B6010E9486
:1035A000E0CE87FF6EC060E070E080EA90ECA5019D
:1035B00094010E945CD320E030E040E251E40E949C
:1035C00038D40E94A0D46B017C01F7FC5FC020E1DD
:1035D00037E240E050E00E941FD3CA01B9012AE05F
:1035E00030E040E050E00E941FD3605D60937F03B5
:1035F000C701B60128EE33E040E050E00E941FD33F
:103600009AE0892E912CA12CB12CCA01B901A501F7
:1036100094010E941FD3605D60938003C701B601CF
:1036200024E630E040E050E00E941FD3CA01B90117
:10363000A50194010E941FD3605D609381038EE217
:1036400080938203C701B601A50194010E941FD394
:10365000C62FCA01B901A50194010E941FD3605D64
:1036600060938303C05DC09384038FE793E0CF91A1
:10367000FF90EF90DF90CF90BF90AF909F908F9092
:10368000089560E070E080EA90E491CFF094E094D7
:10369000D094C094C11CD11CE11CF11C6DE2A6CFDA
:1036A00020E030E0A901C701B6010E94E0CE87FF0B
:1036B0006AC060E070E080EA90ECA50194010E948D
:1036C0005CD320E030E040E251E40E9438D40E9414
:1036D000A0D44B015C0120E030E0A901C701B60194
:1036E0000E9482D587FD0BC020E030E040E251E42B
:1036F000C701B6010E94E0CE60E287FD13C0B7FCAF
:1037000047C0C501B40128EE33E040E050E00E941C
:103710001FD3CA01B9012AE030E040E050E00E9426
:103720001FD3605D60938003C501B40124E630E0DF
:1037300040E050E00E941FD38AE0C82ED12CE12C3B
:10374000F12CCA01B901A70196010E941FD3605D47
:10375000609381038EE280938203C501B401A701C7
:1037600096010E941FD3C62FCA01B901A701960175
:103770000E941FD3605D60938303C05DC093840388
:1037800080E893E074CF60E070E080EA90E495CF49
:10379000B094A09490948094811C911CA11CB11CA5
:1037A0006DE2C0CF9C0197FF26C0EE27FF27E81BE4
:1037B000F90B2D398FEF38070CF05DC08DE2809347
:1037C0008103CF0164E670E00E940CD3CB012AE0B4
:1037D00030E0B9010E940CD3805D80938203CF0159
:1037E000B9010E940CD3CB01B9010E940CD3805DBA
:1037F000809383032AC0283E83E03807B4F1C901CF
:1038000068EE73E00E940CD3CB01EAE0F0E0BF0168
:103810000E940CD3805D80938103C90164E670E04F
:103820000E940CD3CB01BF010E940CD3805D80931A
:103830008203C901BF010E940CD3CB01BF010E94CA
:103840000CD3805D80938303F901CF016AE070E0BF
:103850000E940CD3805D8093840381E893E00895F7
:103860008DE237FDC5CF80E2C3CFF90180E2243677
:1038700031050CF0A4CF80E2809381038093820312
:10388000EA30F1056CF38DE237FF80E2809382032A
:10389000CF016AE070E00E940CD3605D6093830307
:1038A000D4CF9C01EAE0F0E0BF010E940CD3805D20
:1038B000809384032A303105CCF0CB01BF010E94F4
:1038C0000CD3805D809383032436310594F0C901C5
:1038D00064E670E00E940CD3CB01BF010E940CD3C0
:1038E000805D8093820382E893E0089584E893E00A
:1038F000089583E893E008959C0197FD2DC080E230
:10390000243631055CF0C90164E670E00E940CD3F6
:10391000CB016AE070E00E940CD3805D809382034B
:1039200080E22A3031055CF0EAE0F0E0C901BF0135
:103930000E940CD3CB01BF010E940CD3805D809309
:103940008303C9016AE070E00E940CD3805D80931C
:10395000840382E893E008953195219531098DE241
:10396000DDCF24E6829FC001112481589F4F6FEF65
:1039700070E00E940CD3262F81E3643609F080E2C8
:103980008093810390E22A3040F03AE0822F632F47
:103990000E94DFD20E94DFD2905D90938203822F3B
:1039A0006AE00E94DFD2905D9093830385E280936A
:1039B000840381E893E0089560910E0270910F02F4
:1039C000072E000C880B990B0E94E6CE2AE037EDFB
:1039D00043E25CE30E9445CF2091BC033091BD03DC
:1039E0004091BE035091BF030E9445CF60934F02A8
:1039F00070935002809351029093520208958091E7
:103A0000EB04811104C08091C90480935905089585
:103A10008091E4108823C1F081508093E410E7E6A0
:103A2000FFE0882351F08150990B2BE1289FF00192
:103A3000299FF00D1124EA52F04F8BE1ACE4BFE076
:103A400001900D928A95E1F72091E410211105C0B3
:103A50008091EE1080648093EE1081E090E0A0E011
:103A6000B0E0211103C080E090E0DC018093D50438
:103A70009093D604A093D704B093D8041092CF04A7
:103A800081E08093E50483E080933F020895CF9323
:103A9000DF93EC01CB01BA010E94E6CE29EC38ECB1
:103AA00048EC5EE30E9438D420E030E040E05FE381
:103AB0000E945CD30E94A5D46883DF91CF910895C2
:103AC0000E94E6CE29EC38EC48EC5EE30E9438D444
:103AD00020E030E040E05FE30E945CD30E94A5D488
:103AE000862F3FCFE091EB0486E0E802F00111243D
:103AF000E954FB4F8091C90490E095838483089535
:103B0000CF93DF9300D01F92CDB7DEB70E94A5D42C
:103B10000E94E4CE69837A838B839C83CE010196D5
:103B200008DC0F900F900F900F90DF91CF910895C8
:103B30008F929F92AF92BF92CF92DF92EF92FF92BD
:103B4000CF936B017C0120E030E0A9010E94E0CE20
:103B500087FDC3C06DEB77E386E095E3A70196018F
:103B60000E945CD36B017C0120E030E0A9010E943F
:103B7000E0CE87FFB7C0C701B601905820E030E023
:103B800040E251E40E9445CF20E030E040E251E4C1
:103B90000E9445CF20E030E040EA50E40E945CD330
:103BA00020E030E040E251E40E9438D40E94A0D4EA
:103BB0006B017C0160E280EAC81686E8D80681E0E5
:103BC000E806F1048CF0C701B60120EA36E841E0CE
:103BD00050E00E941FD3CA01B9012AE030E040E062
:103BE00050E00E941FD3605D60937E0360E280E13D
:103BF000C81687E2D806E104F1048CF0C701B601CB
:103C000020E137E240E050E00E941FD3CA01B90131
:103C10002AE030E040E050E00E941FD3605D6093F6
:103C20007F0360E288EEC81683E0D806E104F10461
:103C30008CF0C701B60128EE33E040E050E00E946E
:103C40001FD3CA01B9012AE030E040E050E00E94F1
:103C50001FD3605D6093800360E284E6C816D104E0
:103C6000E104F1048CF0C701B60124E630E040E045
:103C700050E00E941FD3CA01B9012AE030E040E0C1
:103C800050E00E941FD3605D609381038AE0882E1C
:103C9000912CA12CB12CC701B601A50194010E9461
:103CA0001FD3C62FCA01B901A50194010E941FD3D9
:103CB000605D609382038EE280938303C05DC09356
:103CC00084038EE793E0CF91FF90EF90DF90CF9049
:103CD000BF90AF909F908F9008956DEB77E386E053
:103CE00095EB3CCF20E030E040E251E4C701B60163
:103CF00049CFCF92DF92EF92FF92CF93DF9300D024
:103D00001F92CDB7DEB76B017C0120E030E0A90146
:103D10000E94E0CE87FD1AC06DEB77E386E095E365
:103D2000A70196010E945CD369837A838B839C836D
:103D3000CE010196FEDA0F900F900F900F90DF9159
:103D4000CF91FF90EF90DF90CF9008956DEB77E3E8
:103D500086E095EBE5CF8F929F92AF92BF92CF9284
:103D6000DF92EF92FF92CF936B017C0120E030E075
:103D7000A9010E94E0CE87FD93C06DEB77E386E05A
:103D800095E3A70196010E945CD36B017C0120E0C2
:103D900030E040E251E40E9445CF20E030E04AE7C5
:103DA00054E40E9445CF4B015C0120E030E0A901C2
:103DB000C701B6010E94E0CE20E030E040EA50E4C6
:103DC00087FF04C020E030E040EA50ECC501B401B8
:103DD0000E945CD320E030E040E251E40E9438D4FD
:103DE0000E94A0D46B017C01C114D104E104F10450
:103DF00009F45BC0F7FE59C0F094E094D094C094ED
:103E0000C11CD11CE11CF11C8DE280937F03C70112
:103E1000B60128EE33E040E050E00E941FD38AE074
:103E2000882E912CA12CB12CCA01B901A5019401B5
:103E30000E941FD3605D609380038EE280938103B4
:103E4000C701B60124E630E040E050E00E941FD3F5
:103E5000CA01B901A50194010E941FD3605D60935E
:103E60008203C701B601A50194010E941FD3C62F8A
:103E7000CA01B901A50194010E941FD3605D60933E
:103E80008303C05DC09384038FE793E0CF91FF90DD
:103E9000EF90DF90CF90BF90AF909F908F9008955C
:103EA0006DEB77E386E095EB6CCF80E2AECFCF93FE
:103EB000DF93EC01CB01BA010E94E6CE20E030E0B6
:103EC00040E251E40E9438D4688379838A839B83DB
:103ED000DF91CF9108950E94E6CE20E030E040E2ED
:103EE00051E40E9438D424CECF93DF93EC01CB0170
:103EF000BA010E94E6CE2AE037ED43E25DE30E947C
:103F000038D40E94A5D4688379838A839B83DF9108
:103F1000CF9108950E94E6CE2AE037ED43E25DE3BB
:103F20000E9438D4EDCDCF93DF93EC01CB01BA01E1
:103F30000E94E6CE2AE037ED43E25DE30E9438D4EA
:103F4000688379838A839B83DF91CF9108950E9450
:103F5000E6CE2AE037ED43E25DE30E9438D4C9CED5
:103F6000CF93DF93EC01CB01BA010E94E6CE6883C8
:103F700079838A839B83DF91CF9108950E94E6CE57
:103F8000B8CECF93DF93EC01CB01BA010E94E6CE0D
:103F900020E030E048EC52E40E9438D46883798312
:103FA0008A839B83DF91CF910895CF92DF92EF9226
:103FB000FF92CF93DF9300D01F92CDB7DEB70E9460
:103FC000E6CE20E030E048EC52E40E9438D46B01A9
:103FD0007C0120E030E0A9010E94E0CE2DEB37E328
:103FE00046E055E387FF04C02DEB37E346E055EB91
:103FF000C701B6010E945CD369837A838B839C835B
:10400000CE01019695DA0F900F900F900F90DF91EF
:10401000CF91FF90EF90DF90CF900895CF93DF93F3
:10402000EC01CB01BA010E94E6CE0E94A0D47983B4
:104030006883DF91CF9108950E94E6CE0E94A0D4BC
:10404000CB015ACCCF93DF93EC01CB01BA010E9494
:10405000E6CE20E030E04AE754E40E9438D468839A
:1040600079838A839B83DF91CF9108950E94E6CE66
:1040700020E030E04AE754E40E9438D46CCE0C943F
:104080001C180C941C180C941C180C941C18FC0183
:1040900080810895FC0184910895AF92BF92CF92E0
:1040A000DF92EF92FF920F931F93CF93DF93EC0178
:1040B0005B018A01FB01199587FD16C0C82ED12C22
:1040C000F12CE12C2196F801C082D182E282F382A8
:1040D000CE01DF91CF911F910F91FF90EF90DF9074
:1040E000CF90BF90AF900895982F907E903CA9F408
:1040F0008F7190E0B0E0A0E06C017D0156E0CC0C47
:10410000DD1CEE1CFF1C5A95D1F7CE010196F5017E
:1041100019958F73C82A2296D6CF982F907F903EFC
:1041200011F58F7090E0B0E0A0E06C017D0136E009
:10413000CC0CDD1CEE1CFF1C3A95D1F7CE0101968C
:10414000F50119958F73C82A46E0CC0CDD1CEE1CD6
:10415000FF1C4A95D1F7CE010296F50119958F7390
:10416000C82A2396B0CF982F987F903F79F5877013
:1041700090E0B0E0A0E06C017D0186E0CC0CDD1C9D
:10418000EE1CFF1C8A95D1F7CE010196F501199519
:104190008F73C82A96E0CC0CDD1CEE1CFF1C9A9590
:1041A000D1F7CE010296F50119958F73C82A26E042
:1041B000CC0CDD1CEE1CFF1C2A95D1F7CE0103961A
:1041C000F50119958F73C82A24967DCF982F907C7E
:1041D000903841F4807C803869F42196CE01F50155
:1041E0001995F8CF8E7F8D3F28F02196CE01F501ED
:1041F0001995F8CFC12CD12C760165CFCF93DF93E1
:10420000C091A804D091A90481E0CE31D105E4F099
:1042100020E030E040E05FE36091A4047091A504E9
:104220008091A6049091A7040E945CD30E94A0D420
:104230006C1B7D0B77FF03C071956195710981E05F
:10424000633071050CF080E0DF91CF91089590E02C
:1042500080E0089520910103833021F425FD0CC0F6
:1042600024FD0CC030E0A90102C0559547958A9500
:10427000E2F7CA018170089581E0089580E0089511
:1042800080911C0384FD0BC080911E0387FD07C035
:1042900090911F03937081E019F480E0089581E00C
:1042A00008952FEB280F2A3108F047C0E22FF0E0E5
:1042B00080911C0390911D03A0911E03B0911F03D8
:1042C00004C0B695A795979587952A95D2F780FD56
:1042D00002C081700895EE5FFC4FE081EE2341F152
:1042E0008091320590913305E80FF92FF11D8081FF
:1042F00090ED980F9A3030F08E3251F481818053D6
:104300008A3098F4F0930003E093FF0281E008956F
:104310008D3211F08B3249F4818190ED980F9A30F3
:1043200088F38E3211F48281EACFF0E0E0E0EACF48
:10433000109200031092FF02E9CF80E00895B1DFF0
:10434000882341F081E02091FF0230910003232B6C
:1043500009F480E008958091970F9091980F891B40
:104360008F7089F48091FD0C813069F09091EE108E
:1043700092FB882780F992FF07C097FB882780F976
:1043800091E08927089581E008958EBD0DB407FE60
:10439000FDCF0895909164009B7F90936400982FC7
:1043A000906A96959CBD80FD03C091E0863009F42B
:1043B00090E09DBD0895CF93DF93C0912105D091EA
:1043C0002205209729F160911D0570911E058091AD
:1043D0001F05909120050E94A0D46E5F7F4F249707
:1043E0006C177D07ACF470937C0460937B040E948F
:1043F000439E605C73468F4F9F4F60937D04709324
:104400007E0480937F0490938004DF91CF91089580
:1044100010927D0410927E0410927F04109280040A
:10442000F4CFC9CFCF93DF93C0912105D09122055E
:10443000209729F160911D0570911E0580911F053F
:10444000909120050E94A0D46E5F7F4F24976C1737
:104450007D07ACF470937C0460937B040E94439EC0
:10446000605C73468F4F9F4F60937D0470937E0412
:1044700080937F0490938004DF91CF9108951092F0
:104480007D0410927E0410927F0410928004F4CF79
:104490000F931F938091FD0C813019F50E94439E6C
:1044A00000918A0310918B0320918C0330918D032E
:1044B000601B710B820B930B28EE33E040E050E061
:1044C0000E94A4D260918603709187038091880333
:1044D00090918903620F731F841F951F1F910F9185
:1044E000089560918E0370918F0380919003909155
:1044F0009103D6CF0F931F930E94439E00913903DF
:1045000010913A0320913B0330913C03601B710BE7
:10451000820B930B97FD0CC086B186FB882780F930
:1045200091E08927349B8260329B846080933803BA
:104530008091380381709091380391FD8260909151
:104540003703981749F0813009F148F0823079F04B
:10455000833091F0809337031F910F91089591302C
:1045600079F09230B9F79091360391500CC09923AD
:1045700039F09330C1F3EECF9130A9F3923051F777
:10458000909136039F5F90933603E4CF992359F3BC
:10459000933001F7F5CFCF92DF92EF92FF92CF9356
:1045A000C82F0E94439E6B017C0124EA30E74DE74F
:1045B0005FE3609108027091090280910A02909174
:1045C0000B020E94E0CE87FD18C08AEF90E0A0E0C9
:1045D000B0E08C0D9D1DAE1DBF1D80932A039093EE
:1045E0002B03A0932C03B0932D03C0930602CF910D
:1045F000FF90EF90DF90CF90089580E090E0DC0195
:10460000E8CFCF93DF93C091A804D091A90420975D
:1046100029F16091A4047091A5048091A604909161
:10462000A7040E94A0D46E5F7F4F24976C177D076C
:10463000ACF470935104609350040E94439E605AFE
:1046400075418F4F9F4F6093520470935304809332
:10465000540490935504DF91CF9108951092520421
:10466000109253041092540410925504F4CFCF9337
:10467000DF93EC018D818EDE60E08B81DF91CF9145
:104680000C94159D61E0FC0183810E94159D8FEFC4
:104690007CCE0F931F93CF938C01E9DF0E944F9E36
:1046A000C82F882361F08DEF70DE0E944F9EC82FC7
:1046B000C801E8DF8C2FCF911F910F91089582E1FF
:1046C000F8018483F5CF0F931F93CF93DF9301E815
:1046D00015E0CAE5D5E0F801219131914191519160
:1046E0008F0160E070E080E89FE30E9438D4699316
:1046F000799389939993F5E0CA36DF0761F70E94B1
:10470000F796DF91CF911F910F910C941C18DBCF7E
:10471000DACFCF93DF93CDB7DEB72C970FB6F894EF
:10472000DEBF0FBECDBF19821A821B821C821D8282
:104730001E821F82188619861A861B861C86AE0169
:104740004F5F5F4FBC018EEF94E00E94FDBE2C9640
:104750000FB6F894DEBF0FBECDBFDF91CF910895A5
:104760006091C9048FEF0C9424BF8091C904682F15
:104770000C9424BF6FEF8091C9040C9424BF6AECA1
:1047800070E482E00C946EBF6CEC70E481E00C94F9
:104790006EBF6EEC70E480E00C946EBF6EE77EE35B
:1047A00083E00C946EBFEF92FF920F931F9384EA05
:1047B000E82E84E1F82E10E000E026EA34E14BEA2E
:1047C0005AE366EB74E18BEB94E10E94AE991F9182
:1047D0000F91FF90EF900895EF92FF920F931F9328
:1047E0008CEDE82E83E1F82E10E000E026E434E1C1
:1047F00046E855E56EED73E183EE93E10E94AE99D4
:104800001F910F91FF90EF900895CF92DF92EF925A
:10481000FF920F931F93CF93DF93CDB7DEB7CDB643
:10482000DEB68091E20C65ED7CE0882311F062EE4B
:104830007CE0FB0101900020E9F7CF01861B970B7C
:1048400001962DB73EB7281B390B0FB6F8943EBF23
:104850000FBE2DBF0DB71EB70F5F1F4F80E2EDB724
:10486000FEB78183C80101960E9460D689E6E82ED2
:1048700084E1F82E2BE634E148E45BE367E774E17A
:104880008EE794E10E94AE990FB6F894DEBE0FBE9B
:10489000CDBEDF91CF911F910F91FF90EF90DF90F0
:1048A000CF90089580913F02882341F060917C036E
:1048B00070917D0341E081E00C9408980895CF92B7
:1048C000DF92EF92FF920F931F93CF93DF9300D06D
:1048D00000D01F921F92CDB7DEB78E010F5F1F4F22
:1048E000D80130E020E0FB01E20FF31FE491ED93EB
:1048F0002F5F3F4F28303105B1F7877098E0899FCF
:10490000B001112460648FEB9FE00E94B99E83E7A1
:1049100090E00197F1F77801E8E0EE0EF11C8BE9E9
:10492000C82ED12CF80161918F018FEB9FE00E947E
:10493000C092C6010197F1F7E016F10699F72896A3
:104940000FB6F894DEBF0FBECDBFDF91CF911F91A0
:104950000F91FF90EF90DF90CF900895CF92DF926C
:10496000EF92FF920F931F93CF93DF9300D000D06D
:10497000CDB7DEB78A0146E0469F9001479F300DD4
:104980001124BC01620F731F46E050E0CE01019676
:104990000E9410CEC980DA80EB80FC80F801408153
:1049A0005181628173818FEF9FEFC416D506E606B1
:1049B000F70640F081E090E04C155D056E057F053F
:1049C00008F080E026960FB6F894DEBF0FBECDBF8C
:1049D000DF91CF911F910F91FF90EF90DF90CF90DB
:1049E00008950F931F93CF93DF93CDB7DEB72E9724
:1049F0000FB6F894DEBF0FBECDBF8B011E861D869D
:104A0000FC0160817181828193816F8378878987BE
:104A10009A872FEF2B87603871058105910538F44F
:104A20008FEB9FE00E94C09281E090E02FC09E013A
:104A3000235F3F4FAE01495F5F4F69EB70E089E252
:104A40009DE00E94BE9497FD2CC08D859E8526E03A
:104A5000289FB001299F700D1124675D724F46E0B9
:104A600050E0CE0101960E9410CE6D818FEB9FE049
:104A70000E94C09201301105B9F26E816623A1F245
:104A80008FEB9FE00E94C09282E090E02E960FB6DE
:104A9000F894DEBF0FBECDBFDF91CF911F910F9174
:104AA00008959E01235F3F4FAE01495F5F4F63E66C
:104AB00070E087ED9AE00E94BE9497FD0BC08D8553
:104AC0009E8526E0289FB001299F700D1124695210
:104AD000754FC5CF6FE3A4CF8091FF029091000383
:104AE000009731F04AE050E070E060E00C9408CDAF
:104AF00060E070E0CB0108958091FF029091000387
:104B0000009731F04AE050E070E060E00C94DDCBBB
:104B100060E070E0CB010895EFDFCB010895ECDF9A
:104B200097FD0AC0E9DF6F3F71058105910509F026
:104B30002CF4E2DF862F089580E008958FEF08952A
:104B40008091FF0290910003892B39F0E8DF91E01A
:104B5000811101C090E0892F089591E0FCCFCF939F
:104B6000DF93C82FD62FEBDB882319F0DF91CF918D
:104B7000E7CF8C2F96DB811101C08D2FDF91CF9174
:104B800008950F931F93CF938091FF02909100039C
:104B90000097E9F0FC018F01C1912C2F2F7D81F04E
:104BA000C53411F0C536B9F7F801108270E060E045
:104BB0000E9488CAF801C083CF911F910F91089578
:104BC00070E060E0CF911F910F910C9488CA60E073
:104BD00070E0CB01F1CF4F925F926F927F92AF92D4
:104BE000BF92CF92DF92EF92FF920F931F93CF93DA
:104BF0008DE7A82E82E0B82E9CEAE92E93E0F92EEC
:104C00000EEF14E021EFC22E24E0D22EC0E0F50119
:104C100081915F0194DB882309F476C0B2DF2B0118
:104C20003C018C2F17DB882309F464C0F801208134
:104C3000318142815381C301B2010E945CD3F701EB
:104C40006083718382839383CF5FF4E0EF0EF11C66
:104C50000C5F1F4F84E0C80ED11CC330C1F685E441
:104C60006EDB882309F45BC08CDF6B017C0183E081
:104C7000F1DA882371F020910A0530910B054091FB
:104C80000C0550910D05C701B6010E945CD36B0164
:104C90007C01C092B803D092B903E092BA03F092BB
:104CA000BB0386E44CDB8823B9F06BDF20E030E007
:104CB000A9010E9482D518167CF463DF20E030E061
:104CC00040E752E40E9438D46093000270930102DE
:104CD0008093020290930302CF911F910F91FF9056
:104CE000EF90DF90CF90BF90AF907F906F905F90EC
:104CF0004F900895F6012081318142815381C30193
:104D0000B2010E945BD39BCFF80180819181A28187
:104D1000B381F70180839183A283B38395CF809180
:104D20000A0590910B05A0910C05B0910D0580939B
:104D3000B8039093B903A093BA03B093BB03B1CF68
:104D40008F929F92AF92BF92CF92DF92EF92FF929B
:104D50000F931F93CF93DF93EC018B8181110EC0D2
:104D600080E0DF91CF911F910F91FF90EF90DF9046
:104D7000CF90BF90AF909F908F90089509891A8926
:104D80002B893C89041715072607370748F34A0182
:104D90005B01823031F488869986AA86BB8681E0E1
:104DA000E0CF81149104A104B10449F41886198656
:104DB0001A861B861C821D821E821F82F0CF0885E8
:104DC00019852A853B85E98DFA8D858590E00996C0
:104DD000B901A8014150510961097109082E04C0A7
:104DE00076956795579547950A94D2F775016401B2
:104DF000E1E0CE1AD108E108F10804C0F694E79486
:104E0000D794C7948A95D2F7C416D506E606F70656
:104E100020F0012B022B032B11F58D899E89AF8980
:104E2000B88D8C839D83AE83BF838E010C5F1F4F33
:104E3000C114D104E104F10409F4ADCF4C815D81CA
:104E40006E817F819801898D9A8D0E9415A791E0CE
:104E5000C91AD108E108F1088111EACF81CFC41A3B
:104E6000D50AE60AF70AE1CF2F923F924F925F925E
:104E70006F927F928F929F92AF92BF92CF92DF926A
:104E8000EF92FF920F931F93CF93DF93EC014B01AF
:104E90007A018B81811115C08FEF9FEFDF91CF9148
:104EA0001F910F91FF90EF90DF90CF90BF90AF9048
:104EB0009F908F907F906F905F904F903F902F903A
:104EC0000895898180FFE8CF89899A89AB89BC8957
:104ED000488559856A857B85841B950BA60BB70B86
:104EE000A70170E060E084179507A607B70708F4EC
:104EF0007C0167011E0124E0220E311CC114D10483
:104F000009F4A9C0488559856A857B855A0181E0E5
:104F1000B822898D9A8D2A013B0129E07694679405
:104F2000579447942A95D1F72B81FC01223081F5C3
:104F3000628D738D848D958D640D751D861D971DF5
:104F400000E012E00A191B09C016D10608F4860118
:104F50000115E2E01E0771F440902A0F50902B0FCC
:104F600060902C0F70902D0F6415750586059705C0
:104F700009F04EC040E00E9420A4882309F48CCFA1
:104F8000B501665D724FA801C4010E9439D652C0B6
:104F9000148111501421A114B10471F411110CC029
:104FA000452B462B472B51F58D899E89AF89B88DAE
:104FB0008C839D83AE83BF83E98DFA8D4C805D80A9
:104FC0006E807F8022E0421A510861087108858551
:104FD00004C0440C551C661C771C8A95D2F7868544
:104FE0009785A089B189480E591E6A1E7B1EC30190
:104FF000B201610F711D811D911DA2CF4C815D8198
:105000006E817F8191010E9415A78111D5CF44CF78
:10501000A0912F0FB091300FED91FC911197008866
:10502000F189E02D9401AB01BC01CD0119958823D4
:1050300009F432CF800E911E88859985AA85BB859B
:10504000800F911FA11DB11D88879987AA87BB87F3
:10505000C01AD10A53CFC70121CF0F931F93CF930B
:10506000DF93FC012381222331F080E0DF91CF9197
:105070001F910F9108958B01EC01FB01878980310D
:1050800039F582E08B831D8A1E8A1F8A188E808DD7
:10509000918DB0E0A0E025E0880F991FAA1FBB1FEB
:1050A0002A95D1F7898B9A8BAB8BBC8B1A8F098F82
:1050B00081E08983188619861A861B861C821D82C8
:1050C0001E821F82188A1C861D861E861F86CECFD2
:1050D000803259F683E08B83428D538D648D758DBC
:1050E0004D8B5E8B6F8B788F9E012F5E3F4FC8017B
:1050F0000E9497A78111DACFB8CFCF93DF93EC014D
:105100000E9400A81B82DF91CF910895CF93DF9377
:10511000EC01462F41706C857D858E859F850E94B0
:1051200020A4882351F0888920E2829FC0011124A5
:10513000865D924FDF91CF91089590E080E0FACFA5
:10514000CF93DF93EB01FC012381211104C080E0A8
:10515000DF91CF9108952250223028F48FE2888386
:10516000198281E0F5CF60E0D1DF009781F3DC01A7
:1051700060E080E09EE22D91203299F0883031F499
:105180009E01260F311DF90190836F5F9E01260F4E
:10519000311DAD0141505109FA014081F9014083AF
:1051A0006F5F8F5F8B3039F7FE01E60FF11D1082C4
:1051B000D8CF3F924F925F926F927F928F929F9241
:1051C000AF92BF92CF92DF92EF92FF920F931F9315
:1051D000CF93DF93CDB7DEB72C970FB6F894DEBF31
:1051E0000FBECDBF5C01DC0159968D909C90F401FF
:1051F00081859285A385B4859C01AD012F5F3F4FCA
:105200004F4F5F4F29873A874B875C87D5011496AC
:105210004D905D906D907C901797411451046104FE
:10522000710409F459C0BFEF4B1A5B0A6B0A7B0A81
:10523000312C730162011D821E821F821886F401C7
:1052400081859285A385B4852D813E814F815885C6
:10525000281739074A075B0708F056C089859A85E1
:10526000AB85BC858C159D05AE05BF0550F482E06D
:10527000C82ED12CE12CF12C92E0492E512C612C1E
:10528000712C9E012F5F3F4FB701A601C4010E9400
:1052900015A78823C9F189819A81AB81BC81892BAB
:1052A0008A2B8B2B01F1260137019FEF491A590AEE
:1052B000690A790A2D813E814F8158852F5F3F4FC2
:1052C0004F4F5F4F2D833E834F8358873FEFC31A65
:1052D000D30AE30AF30AB3CF40805180628073801F
:1052E00033243394A6CFC414D504E604F70411F78D
:1052F0000FEF1FEF2FEF3FE0B701A601C4010E949F
:1053000084A6782E81111AC0712C872D2C960FB689
:10531000F894DEBF0FBECDBFDF91CF911F910F91EB
:10532000FF90EF90DF90CF90BF90AF909F908F90C5
:105330007F906F905F904F903F900895F50144816A
:10534000558166817781411551056105710539F0F7
:1053500097018601C4010E9484A68823A9F2D50181
:105360001496CD92DD92ED92FC921797332051F076
:10537000D701C6010196A11DB11DF401808391835F
:10538000A283B383F50185899689A789B08D892B7E
:105390008A2B8B2B09F0B9CFC58AD68AE78AF08E83
:1053A000818180688183B1CF40E050E0BA01C8CCF0
:1053B000FC0123812111A1CE08952F923F924F929B
:1053C0005F926F927F928F929F92AF92BF92CF9295
:1053D000DF92EF92FF920F931F93CF93DF93CDB79E
:1053E000DEB7C454D1090FB6F894DEBF0FBECDBFEF
:1053F0007C014B015A01222E19821C821C8E1F8EA9
:105400006115710511F410E0AEC1DC0113968C91A9
:105410008111F9CFFA0180818B018F32C9F4DB0150
:1054200013968C9113978250823058F059966D9153
:105430007C91CE014C9611DE8E01045E1F4F8823B5
:1054400011F3C5015C010196F50120812F32D1F3E2
:105450009E012F5F3F4F6901290130E2332E2496D0
:10546000CFAE24972596DFAE25973E013CE1630E33
:10547000711C22963FAE229721963FAE21973FAEF8
:105480003EAE3DAE3CAE3BAE3AAE39AE38AE3FAAD4
:10549000950190E047E0D9018D91882361F18F3229
:1054A00051F18E3239F44A3009F4ADCF98E04AE038
:1054B0009D01F1CFE3EAFAE12491222321F0319614
:1054C0008213FACFA0CF491708F49DCF813208F498
:1054D0009ACF8F3709F497CF3FE9380F3A3108F464
:1054E00020EEE7E3F0E0EC0FFD1FE90FF11D820F66
:1054F00080839F5FDDCF8FA9803209F484CF59016B
:10550000D9018C912F5F3F4F8F32C9F38823A1F0CF
:105510000815190511F0C801F0DD24969FAD2497F8
:1055200025968FAD25974C145D0411F4962D872D8B
:105530008601C92ED82E9DCFF801818D928DD7017D
:105540005A969C938E935997C8012EDFC12CF8016F
:1055500080859185A285B385418952896389748943
:1055600084179507A607B70708F052C025E0B6953F
:10557000A795979587952A95D1F7F82FFF70DF2E7D
:10558000D80113968C91823008F43DCF41E050E071
:10559000BE016E5B7F4FC80167DC019709F033CF16
:1055A000F80180859185A285B3854F96A11DB11D17
:1055B00080879187A287B387F0E2DF9EB001112434
:1055C000665D724F6115710509F41DCFDB018C9189
:1055D000882341F0853E09F04CC0CC2029F0CC2432
:1055E000C394B5CFC1100EC080912A0F90912B0F9C
:1055F000A0912C0FB0912D0FF70184879587A68776
:10560000B787D08ADB018C918111E9CFCC24C39478
:10561000822D8274823409F0F6CECC2009F4C4C005
:10562000F701D08861E0C70171DD009709F4EBCE86
:1056300020E2DC011D922A95E9F72BE0FE01F796A6
:10564000DC0101900D922A95E1F721E238E2FC019C
:10565000318B208B40E058E057874687338B228B75
:10566000318F208F578B468B0E94D7A381110AC0A0
:10567000CACE4BE050E0CE01C7960E942CD6892BB3
:1056800009F065CF2D2D30E0F901B5E0EE0FFF1FD9
:10569000BA95E1F7DF01A65DB24F1B968C9181713F
:1056A00021F0822D827109F01DC1D70159968D918B
:1056B0009C915A9740912A0F50912B0F60912C0F7B
:1056C00070912D0F1C964D935D936D937C931F9756
:1056D0005096DC925097E65DF24F84889588B12C05
:1056E000A12C54019924882455968D929D92AD92B7
:1056F000BC925897428D538D70E060E0482959293B
:105700006A297B2955964D935D936D937C935897A9
:10571000A5E0220F331FAA95E1F7D901A65DB24F8C
:105720001B962C91287109F0CFC0848D958DA68D84
:10573000B78DF701818B928BA38BB48B81E0838330
:10574000822D8F70F7018183148215821682178251
:10575000108611861286138611E024FE04C0C7014C
:105760000E9434A8182FCE014C9622DECE0101965D
:105770001FDE812FCC5BDF4F0FB6F894DEBF0FBE6C
:10578000CDBFDF91CF911F910F91FF90EF90DF90F0
:10579000CF90BF90AF909F908F907F906F905F90D1
:1057A0004F903F902F900895D80113968C911397A6
:1057B000823009F428CE51968D919D910D90BC9127
:1057C000A02D803E9F4FAF41B10508F01CCEC8010F
:1057D000F0DC882309F417CE0E94D7A3882309F4AC
:1057E00012CED8015996ED91FC915A9714968D904E
:1057F0009D90AD90BC901797B2E08B1A9108A108CC
:10580000B108858504C0880C991CAA1CBB1C8A950C
:10581000D2F786859785A089B189880E991EAA1E20
:10582000BB1E81E080932E0F80922A0F90922B0F47
:10583000A0922C0FB0922D0FEAE2FDE080E092E002
:10584000DF019C011D9221503040E1F7DD24D3940B
:10585000D8015996ED91FC918481D816C0F48091BD
:105860002F0F9091300FDC01ED91FC910288F389AC
:10587000E02D2AE23DE0B501A4014D0D511D611D51
:10588000711D1995882309F4BECDD394E1CF2585E8
:1058900080E092E0A0E0B0E004C0880F991FAA1F4A
:1058A000BB1F2A95D2F7F80141895289638974890F
:1058B000840F951FA61FB71F818B928BA38BB48B70
:1058C0008AE29DE0D12CB4CE203161F497012F5EA5
:1058D0003F4F0E9497A7882329F084E0D7011396B1
:1058E0008C932ECFD70113961C928DCD0F930FB7AB
:1058F0000F9300916E000D7F00936E0078940F93CC
:105900000BB70F930CB70F921F922F933F934F93A8
:105910005F936F937F938F939F93AF93BF93EF9317
:10592000FF931124FAD3FF91EF91BF91AF919F9113
:105930008F917F916F915F914F913F912F911F9028
:105940000F900CBF0F910BBF0F910260F894009362
:105950006E000F910FBF0F911895CF93DF931092A8
:105960003005C9E1D5E0198618860E9412221A86F0
:105970002C98C0EAD4E0198618860E9401231A8662
:1059800080910201807280930001DF91CF91089590
:105990008F929F92AF92BF92CF92DF92EF92FF923F
:1059A0000F931F93CF93DF93B0E4A0E06A2F70E0D2
:1059B000AB014B0F511D55954795411119C0E5E4B9
:1059C000FCE165917491072E000C880B990B0E94E5
:1059D000E6CEDF91CF911F910F91FF90EF90DF9076
:1059E000CF90BF90AF909F908F900895B42FE0CF4D
:1059F000A41711F0B41303C0E1E4FDE1E2CF9A0172
:105A000021503109220F331F220F331FF901ED5BA3
:105A1000F34EE590F490F901E95BF34EC591D49112
:105A20008E159F0518F3A42FC817D90708F4BECF09
:105A3000F901EB5BF34E05911491F901E75BF34E2D
:105A4000C590D4908E199F09BC0190E080E00E941F
:105A5000E4CE4B015C01B601601B710B072E000CFC
:105A6000880B990B0E94E6CE9B01AC01C501B401E5
:105A70000E9445CF4B015C01CE19DF09BE0190E0C9
:105A800080E00E94E4CE9B01AC01C501B4010E94FC
:105A900038D46B017C01B801110F880B990B0E945F
:105AA000E6CE9B01AC01C701B6010E945CD391CF49
:105AB000BC012091110430911204409111045091C5
:105AC00012042417350731F481E02617370709F04F
:105AD00080E008959A01F1CF0F930FB70F930091D3
